:100000000C945D000C9485000C9485000C94850084
:100010000C9485000C9485000C9485000C9485004C
:100020000C9485000C9485000C9485000C9485003C
:100030000C9485000C9485000C9485000C9485002C
:100040000C9482030C9485000C9485000C9485001C
:100050000C9485000C9485000C9485000C9485000C
:100060000C9485000C94850000000008000201003B
:100070000003040700000000000000000102040863
:100080001020408001020408102001020408102002
:10009000040404040404040402020202020203032E
:1000A0000303030300000000250028002B000000CC
:1000B0000000240027002A00BE0111241FBECFEF3C
:1000C000D8E0DEBFCDBF11E0A0E0B1E0EAE4F2E1AC
:1000D00002C005900D92AE31B107D9F721E0AEE133
:1000E000B1E001C01D92A336B207E1F710E0CAEB00
:1000F000D0E004C02297FE010E941F09C83BD1072F
:10010000C9F70E94F6040C9423090C94000020E027
:1001100042E060E182E491E00C949B028F929F9216
:10012000AF92BF92CF92DF92EF92FF920E94D803DC
:1001300060932A0170932B0180932C0190932D01E1
:100140008EE00E944004BC01882777FD8095982F9F
:100150000E94E00760933E0170933F01809340014D
:10016000909341018FE00E944004BC01882777FDF5
:100170008095982F0E94E0076B017C0160933A0103
:1001800070933B0180933C0190933D0120E030EC63
:100190004FE754E460913E0170913F01809140012E
:1001A000909141010E94450720E030E040EA50E490
:1001B0000E94940826E636E646E150E40E94DC06FA
:1001C00020E030E046E653E40E94940826E636E656
:1001D00046EA5FE30E94450760933601709337015A
:1001E000809338019093390120E030EC4FE754E4DC
:1001F000C701B6010E94450720E030E040EA50E424
:100200000E94940826E636E646E150E40E94DC06A9
:100210002EEA37E441E65EE30E94940820E030E0F5
:1002200040E850E40E9494086093320170933301D7
:1002300080933401909335010E94D8036B017C01B7
:1002400060932601709327018093280190932901E0
:1002500020913201309133014091340150913501A8
:100260006091360170913701809138019091390188
:100270000E9494084B015C0180912A0190912B010E
:10028000A0912C01B0912D01A7019601281B390BDB
:100290004A0B5B0BCA01B9010E94DE079B01AC014E
:1002A000C501B4010E94940824EA33E946E55FE4FD
:1002B0000E9445079B01AC0160912E0170912F01B6
:1002C00080913001909131010E94DD0660932E01F2
:1002D00070932F0180933001909331010E94CC03E1
:1002E00060931E0170931F01809320019093210160
:1002F000C0902201D0902301E0902401F0902501CC
:10030000DC01CB018C199D09AE09BF09813A9F40E0
:10031000A105B10550F140E060E082E491E00E9467
:10032000810261E071E082E491E00E944305409126
:100330002E0150912F01609130017091310122E026
:1003400030E082E491E00E94DA0664E071E082E449
:1003500091E00E9443050E94CC03609322017093B8
:1003600023018093240190932501FF90EF90DF906B
:10037000CF90BF90AF909F908F900895CF92EF92C3
:100380000F9382E0C82E93E0E92E04E025E04BE0D5
:100390006CE082E491E00E9456030F91EF90CF90C1
:1003A0000895CF93DF93EC0160E08E810E94BF043B
:1003B00081E090E00E94FB0361E08E810E94BF0417
:1003C00081E090E00E94FB0360E08E810E94BF0408
:1003D00084E690E0DF91CF910C94FB03CF92DF9203
:1003E000EF92FF920F931F93CF93DF937C01C0E0B6
:1003F000D0E0C62ED12C87010C0F1D1F61E0F80143
:1004000087810E948604B6010C2E02C075956795FF
:100410000A94E2F76170F80187810E94BF04219677
:10042000C430D10541F7C701DF91CF911F910F91E2
:10043000FF90EF90DF90CF900C94D101CF92DF929C
:10044000EF92FF920F931F93CF93DF937C01C0E055
:10045000D0E0C62ED12C87010C0F1D1F61E0F801E2
:1004600087810E948604B6010C2E02C0759567959F
:100470000A94E2F76170F80187810E94BF04219617
:10048000C830D10541F7C701DF91CF911F910F917E
:10049000FF90EF90DF90CF900C94D1011F93CF93FA
:1004A000DF93EC01162F642F8C810E94BF048D8195
:1004B0008F3F19F060E00E94BF048F85612F84FF99
:1004C00006C0CE01DF91CF911F910C941E0270E007
:1004D00084E0759567958A95E1F7CE010E94EE015B
:1004E000612FCE01DF91CF911F910C94EE0140E07E
:1004F0000C944E0261E00E94770280ED97E00C942C
:10050000FB03443008F043E0FC012389421710F05C
:100510004FEF420FFC01E40FF11D2489260F2068E4
:10052000622F0C947702FC016089262F2460208BB7
:100530006C600C947702CF93DF93EC01423018F09B
:100540008F8588608F874B8B1C8A80E48D8B6E8BA8
:1005500070E0605C7F4F6F8B222329F0413019F4EB
:100560008F8584608F8780E593EC0E94FB0360E0B9
:100570008C810E94BF0460E08E810E94BF048D8147
:100580008F3F19F060E00E94BF046F8564FD1DC0BD
:1005900063E0CE010E94EE0184E991E10E94FB0339
:1005A00063E0CE010E94EE0184E991E10E94FB0329
:1005B00063E0CE010E94EE0186E990E00E94FB0319
:1005C00062E0CE010E94EE0116C06062CE010E9480
:1005D000770284E991E10E94FB036F856062CE019E
:1005E0000E94770286E990E00E94FB036F856062BB
:1005F000CE010E9477026F856062CE010E94770271
:1006000084E0888BCE010E949302CE010E947A0280
:1006100082E0898B66E0CE01DF91CF910C94770266
:100620006F927F928F92AF92CF92EF920F931F9320
:10063000CF93DF93CDB7DEB73C01162F842F5D85B6
:100640004E853F859889F301848325830683E7825D
:10065000C086A1868286538744873587968761E066
:100660000E948604F30185818F3F19F061E00E94AA
:10067000860461E0F30186810E948604112319F04B
:10068000F301178603C080E1F301878720E041E092
:1006900060E1C301DF91CF911F910F91EF90CF9057
:1006A000AF908F907F906F900C949B028F92AF923F
:1006B000CF92EF920F93DC0113961C921E92129729
:1006C000ECE0F1E0ED93FC931F921F921F921F92BA
:1006D0008C2CAE2CC02EE22E042F2FEF462F61E083
:1006E0000E9410030F900F900F900F900F91EF90BA
:1006F000CF90AF908F90089541E00E944E0281E02C
:1007000090E008951F920F920FB60F9211242F932D
:100710003F938F939F93AF93BF9380915B01909191
:100720005C01A0915D01B0915E0130915A0123E01E
:10073000230F2D3720F40196A11DB11D05C026E819
:10074000230F0296A11DB11D20935A0180935B01D6
:1007500090935C01A0935D01B0935E0180915F0175
:1007600090916001A0916101B09162010196A11D7B
:10077000B11D80935F0190936001A0936101B093DC
:100780006201BF91AF919F918F913F912F910F90F7
:100790000FBE0F901F9018952FB7F89460915B01D2
:1007A00070915C0180915D0190915E012FBF089571
:1007B0003FB7F89480915F0190916001A091610131
:1007C000B091620126B5A89B05C02F3F19F0019694
:1007D000A11DB11D3FBF6627782F892F9A2F620F69
:1007E000711D811D911D42E0660F771F881F991FA3
:1007F0004A95D1F70895019739F0880F991F880F0E
:10080000991F02970197F1F70895789484B5826053
:1008100084BD84B5816084BD85B5826085BD85B5A4
:10082000816085BDEEE6F0E0808181608083E1E853
:10083000F0E010828081826080838081816080838B
:10084000E0E8F0E0808181608083E1EBF0E080818E
:1008500084608083E0EBF0E0808181608083EAE760
:10086000F0E08081846080838081826080838081E9
:10087000816080838081806880831092C1000895A8
:100880008E3008F08E5087702091000190E4299FEF
:1008900090011124822B80937C0080917A008064E7
:1008A00080937A0080917A0086FDFCCF8091780059
:1008B0002091790090E0922B0895833081F028F404
:1008C000813099F08230A1F008958730A9F0883006
:1008D000B9F08430D1F4809180008F7D03C0809185
:1008E00080008F7780938000089584B58F7702C051
:1008F00084B58F7D84BD08958091B0008F7703C04B
:100900008091B0008F7D8093B0000895CF93DF93E6
:1009100090E0FC01E458FF4F2491FC01E057FF4FA9
:100920008491882349F190E0880F991FFC01E255DA
:10093000FF4FA591B4918C559F4FFC01C591D49167
:100940009FB7611108C0F8948C91209582238C93F5
:10095000888182230AC0623051F4F8948C91322F3E
:10096000309583238C938881822B888304C0F894EC
:100970008C91822B8C939FBFDF91CF9108950F9321
:100980001F93CF93DF931F92CDB7DEB7282F30E0B0
:10099000F901E859FF4F8491F901E458FF4F149190
:1009A000F901E057FF4F04910023C9F0882321F09B
:1009B00069830E945D046981E02FF0E0EE0FFF1F64
:1009C000EC55FF4FA591B4919FB7F8948C916111AC
:1009D00003C01095812301C0812B8C939FBF0F9082
:1009E000DF91CF911F910F91089508950E94050402
:1009F0000E94F5040E948700C0E0D0E00E948E00B3
:100A00002097E1F30E940000F9CFCF92DF92EF929E
:100A1000FF920F931F93CF93DF936C017A01EB0149
:100A2000E60EF71E00E010E0CE15DF0561F06991DB
:100A3000D601ED91FC910190F081E02DC601099560
:100A4000080F191FF1CFC801DF91CF911F910F91AE
:100A5000FF90EF90DF90CF9008956115710581F0C0
:100A6000DB010D900020E9F7AD0141505109461B13
:100A7000570BDC01ED91FC910280F381E02D09948C
:100A800080E090E008950C942D05DC01ED91FC913F
:100A90000190F081E02D09948F929F92AF92BF92C6
:100AA000CF92DF92EF92FF920F931F93CF93DF933A
:100AB000CDB7DEB7A1970FB6F894DEBF0FBECDBF9E
:100AC0007C01C42EE52FCB01D22E19A221E02D15D9
:100AD00010F02AE0D22E8E010F5D1F4F8D2C912C2D
:100AE000A12CB12C6C2D7E2FA50194010E94FB0836
:100AF0008C2DD29E80191124015011098A3014F4D2
:100B0000805D01C0895CF8018083211531054105B4
:100B1000510521F0C22EE32FCA01E4CFB801C7016D
:100B20000E942D05A1960FB6F894DEBF0FBECDBF73
:100B3000DF91CF911F910F91FF90EF90DF90CF90B9
:100B4000BF90AF909F908F900895CF92DF92EF92D9
:100B5000FF920F931F93CF93DF93EC016A017B0108
:100B60002115310579F4E881F9810190F081E02DBA
:100B7000642FDF91CF911F910F91FF90EF90DF9045
:100B8000CF9009942A303105E9F477FF1AC06DE25D
:100B90000E9445058C0144275527BA014C195D096F
:100BA0006E097F092AE0CE010E944C05800F911F3B
:100BB000DF91CF911F910F91FF90EF90DF90CF9039
:100BC00008952AE0B701A601CE01DF91CF911F91D0
:100BD0000F91FF90EF90DF90CF900C944C054F92C7
:100BE0005F926F927F928F929F92AF92BF92CF92BD
:100BF000DF92EF92FF920F931F93CF93DF93EC015D
:100C00006A017B01B22E9A01AB01C701B6010E94B5
:100C1000F708882319F060E171E027C02601370149
:100C2000E89477F82FEF3FEF4FE75FE7C301B2019A
:100C30000E94F70881110DC02FEF3FEF4FE75FE7EC
:100C4000C301B2010E94410718161CF464E171E06F
:100C50000CC02FEF3FEF4FE75FE4C701B6010E94E2
:100C600090081816ACF468E171E0CE01DF91CF91E5
:100C70001F910F91FF90EF90DF90CF90BF90AF90BA
:100C80009F908F907F906F905F904F900C942D0568
:100C90002FEF3FEF4FE75FECC701B6010E9441071E
:100CA00087FDE1CF20E030E0A901C701B6010E9435
:100CB000410787FF0AC06DE2CE010E9445058C0105
:100CC000F7FAF094F7F8F09402C000E010E0A12CDD
:100CD00060E070E080E09FE3AB1441F020E030E0A2
:100CE00040E251E40E944507A394F6CF9B01AC017A
:100CF000C701B6010E94DD066B017C010E94B207AC
:100D00002B013C010E94DE079B01AC01C701B6012B
:100D10000E94DC066B017C012AE0B301A201CE0136
:100D20000E944C05080F191FBB2039F06CE171E0DF
:100D3000CE010E942D05080F191F7B2C772041F151
:100D400020E030E040E251E4C701B6010E9494087F
:100D50006B017C010E94AD074B01AA2497FCA09473
:100D6000BA2C2AE030E0B501A401CE010E94A5050D
:100D7000080F191FC501B4010E94E0079B01AC01D7
:100D8000C701B6010E94DC066B017C017A94D6CFC4
:100D9000C801DF91CF911F910F91FF90EF90DF90ED
:100DA000CF90BF90AF909F908F907F906F905F900B
:100DB0004F9008950C94EF055058BB27AA270ED0EA
:100DC00075C166D130F06BD120F031F49F3F11F442
:100DD0001EF45BC10EF4E095E7FB51C1E92F77D11A
:100DE00080F3BA17620773078407950718F071F448
:100DF0009EF58FC10EF4E0950B2EBA2FA02D0B019E
:100E0000B90190010C01CA01A0011124FF27591B4F
:100E100099F0593F50F4503E68F11A16F040A22F55
:100E2000232F342F4427585FF3CF469537952795C6
:100E3000A795F0405395C9F77EF41F16BA0B620BC5
:100E4000730B840BBAF09150A1F0FF0FBB1F661F0C
:100E5000771F881FC2F70EC0BA0F621F731F841F4F
:100E600048F4879577956795B795F7959E3F08F075
:100E7000B3CF9395880F08F09927EE0F9795879534
:100E80000895D9D008F481E008950CD00FC107D19E
:100E900040F0FED030F021F45F3F19F0F0C0511166
:100EA00039C1F3C014D198F39923C9F35523B1F391
:100EB000951B550BBB27AA2762177307840738F0C9
:100EC0009F5F5F4F220F331F441FAA1FA9F333D028
:100ED0000E2E3AF0E0E830D091505040E695001CDC
:100EE000CAF729D0FE2F27D0660F771F881FBB1F98
:100EF000261737074807AB07B0E809F0BB0B802D72
:100F0000BF01FF2793585F4F2AF09E3F510568F0BD
:100F1000B6C000C15F3FECF3983EDCF38695779551
:100F20006795B795F7959F5FC9F7880F911D9695BF
:100F3000879597F90895E1E0660F771F881FBB1F1B
:100F4000621773078407BA0720F0621B730B840BC8
:100F5000BA0BEE1F88F7E095089504D06894B1119C
:100F6000D9C00895BCD088F09F5790F0B92F992729
:100F7000B751A0F0D1F0660F771F881F991F1AF0A4
:100F8000BA95C9F712C0B13081F0C3D0B1E008956D
:100F9000C0C0672F782F8827B85F39F0B93FCCF3EE
:100FA000869577956795B395D9F73EF4909580959A
:100FB000709561957F4F8F4F9F4F0895E89409C0BA
:100FC00097FB3EF490958095709561957F4F8F4F7C
:100FD0009F4F9923A9F0F92F96E9BB279395F69592
:100FE000879577956795B795F111F8CFFAF4BB0F10
:100FF00011F460FF1BC06F5F7F4F8F4F9F4F16C074
:10100000882311F096E911C0772321F09EE8872FFD
:10101000762F05C0662371F096E8862F70E060E0B9
:101020002AF09A95660F771F881FDAF7880F969532
:10103000879597F90895990F0008550FAA0BE0E8D6
:10104000FEEF16161706E807F907C0F0121613068A
:10105000E407F50798F0621B730B840B950B39F4CA
:101060000A2661F0232B242B252B21F408950A2630
:1010700009F4A140A6958FEF811D811D089597F970
:101080009F6780E870E060E008959FEF80EC08952E
:1010900000240A9416161706180609060895002457
:1010A0000A9412161306140605060895092E0394D1
:1010B000000C11F4882352F0BB0F40F4BF2B11F445
:1010C00060FF04C06F5F7F4F8F4F9F4F089557FDA4
:1010D0009058440F551F59F05F3F71F04795880FA6
:1010E00097FB991F61F09F3F79F08795089512163D
:1010F00013061406551FF2CF4695F1DF08C01616E9
:1011000017061806991FF1CF869571056105089499
:101110000895E894BB2766277727CB0197F90895B0
:101120008ADF08F48FEF08950BD0C0CFB1DF28F02D
:10113000B6DF18F0952309F0A2CFA7CF1124EACF8C
:10114000C6DFA0F3959FD1F3950F50E0551F629F26
:10115000F001729FBB27F00DB11D639FAA27F00D10
:10116000B11DAA1F649F6627B00DA11D661F829F37
:101170002227B00DA11D621F739FB00DA11D621F1C
:10118000839FA00D611D221F749F3327A00D611D39
:10119000231F849F600D211D822F762F6A2F11241B
:1011A0009F5750408AF0E1F088234AF0EE0FFF1F6E
:1011B000BB1F661F771F881F91505040A9F79E3FA5
:1011C000510570F05CCFA6CF5F3FECF3983EDCF3A7
:1011D000869577956795B795F795E7959F5FC1F7E2
:1011E000FE2B880F911D9695879597F9089523DF1B
:1011F000880B990B0895A1E21A2EAA1BBB1BFD01B7
:101200000DC0AA1FBB1FEE1FFF1FA217B307E407E5
:10121000F50720F0A21BB30BE40BF50B661F771F3D
:10122000881F991F1A9469F760957095809590951D
:101230009B01AC01BD01CF010895EE0FFF1F05908A
:0A124000F491E02D0994F894FFCF1B
:10124A0001453D0020576800000000007C030505A9
:0E125A006E616E00696E66006F7666002E0093
:00000001FF
